:100000000C942A000C9447000C9447000C94470071
:100010000C9447000C9447000C9447000C94470044
:100020000C9447000C9447000C9447000C94470034
:100030000C9447000C9447000C9447000C94470024
:100040000C9447000C9447000C9447000C94470014
:100050000C94470011241FBECFE5D8E0DEBFCDBF12
:1000600013E0A0E6B0E0E2E0F1E202C005900D92FC
:10007000A63DB107D9F713E0A6EDB3E001C01D928C
:10008000A83DB107E1F70E94030D0C947F100C947A
:100090000000EF92FF920F931F937B018C0120E0F1
:1000A00030E040E05FE40E94C50388238CF0C80183
:1000B000B70120E030E040E05FE40E94C1010E940F
:1000C00025049B01AC01205030404040504806C000
:1000D000C801B7010E9425049B01AC01B901CA0106
:1000E0001F910F91FF90EF900895A0E0B0E0EBE733
:1000F000F0E00C94580DDC012B01FA019C91923038
:1001000008F439C1EB018881823008F433C194309E
:1001100069F4843009F02FC111969C91119789815F
:10012000981709F428C1ADEEB0E025C1843009F478
:1001300021C18230A9F4923009F01DC19A01AD01AC
:1001400088E0EA010990AE01E90109929E0181501F
:10015000C1F7E201898111969C918923818308C1AD
:10016000923009F407C112962D903C901397EB0141
:100170008A819B811496AD90BD90CD90DC901797AD
:10018000EC80FD800E811F819101281B390BB90184
:1001900037FF04C066277727621B730B6032710537
:1001A0000CF061C0121613066CF537014801062EDB
:1001B00004C096948794779467940A94D2F721E0C8
:1001C00030E040E050E004C0220F331F441F551FB1
:1001D0006A95D2F721503040404050402E213F21B7
:1001E00040235123211531054105510521F021E01E
:1001F00030E040E050E079018A01E628F72808293C
:1002000019293CC0232BD1F1260E371E350146019A
:10021000062E04C096948794779467940A94D2F734
:1002200021E030E040E050E004C0220F331F441FC3
:10023000551F6A95D2F721503040404050402A2146
:100240003B214C215D21211531054105510521F04E
:1002500021E030E040E050E059016A01A628B728CB
:10026000C828D9280BC0821593052CF01C01AA249C
:10027000BB24650103C0EE24FF24870111969C91E5
:10028000D20111968C91981709F445C0992339F041
:10029000A80197012A193B094C095D0906C0A6016E
:1002A00095012E193F09400B510B57FD08C01182D3
:1002B0003382228224833583468357831DC081E0A5
:1002C00081833382228288279927DC01821B930B4A
:1002D000A40BB50B84839583A683B7830DC0220F2F
:1002E000331F441F551F24833583468357838281E0
:1002F000938101979383828324813581468157813D
:10030000DA01C9010197A109B1098F5F9F4FAF4F72
:10031000BF4328F30BC0918333822282EA0CFB1C7B
:100320000C1D1D1DE482F5820683178383E0808304
:10033000248135814681578157FF1AC0C901AA27F8
:1003400097FDA095BA2F81709070A070B0705695EF
:10035000479537952795822B932BA42BB52B848318
:100360009583A683B7838281938101969383828349
:10037000DF0101C0D201CD01CDB7DEB7E2E10C94BF
:10038000740DA0E2B0E0E7ECF1E00C94640D698339
:100390007A838B839C832D833E834F835887E9E048
:1003A000EE2EF12CEC0EFD1ECE010196B7010E943F
:1003B00016068E010F5E1F4FCE010596B8010E94F2
:1003C00016068A8991E089278A8BC701B801AE0198
:1003D000475E5F4F0E9475000E944105A096E6E0CF
:1003E0000C94800DA0E2B0E0E8EFF1E00C94640D15
:1003F00069837A838B839C832D833E834F835887C5
:10040000F9E0EF2EF12CEC0EFD1ECE010196B701A6
:100410000E9416068E010F5E1F4FCE010596B80191
:100420000E941606C701B801AE01475E5F4F0E94E9
:1004300075000E944105A096E6E00C94800DA0E2B4
:10044000B0E0E5E2F2E00C94580D69837A838B8387
:100450009C832D833E834F835887CE010196BE0136
:10046000675F7F4F0E941606CE010596BE016F5E44
:100470007F4F0E9416069985923088F089898230D4
:10048000C8F0943019F4823051F404C0843029F457
:10049000923081F48DEE90E0C6C0923049F420E0B5
:1004A0009A858A89981321E02A87CE010996BBC0D4
:1004B000823049F420E09A858A89981321E02A8BBA
:1004C000CE014196B0C02D843E844F8458886D88FB
:1004D0007E888F88988CEE24FF248701AA24BB2471
:1004E000650140E050E060E070E0E0E0F0E0C10174
:1004F00081709070892BE9F0E60CF71C081D191D1E
:100500009A01AB012A0D3B1D4C1D5D1D80E090E062
:10051000A0E0B0E0E614F7040805190520F481E036
:1005200090E0A0E0B0E0BA01A901480F591F6A1F8E
:100530007B1FAA0CBB1CCC1CDD1C97FE08C081E0F5
:1005400090E0A0E0B0E0A82AB92ACA2ADB2A3196B6
:10055000E032F10549F0660C771C881C991C569412
:10056000479437942794C3CFFA85EA892B893C892D
:100570008B859C85280F391F2E5F3F4F17C0CA01FE
:1005800081709070892B61F016950795F794E79428
:1005900080E090E0A0E0B0E8E82AF92A0A2B1B2BC3
:1005A00076956795579547952F5F3F4F77FDE7CF36
:1005B0000CC0440F551F661F771F17FD4160EE0CDE
:1005C000FF1C001F111F21503040403090E05907A0
:1005D00090E0690790E4790760F32B8F3C8FDB0193
:1005E000CA018F779070A070B07080349105A1051A
:1005F000B10561F447FD0AC0E114F10401051105DC
:1006000029F0405C5F4F6F4F7F4F40781A8EFE1786
:1006100011F081E08A8F4D8F5E8F6F8F78A383E01A
:10062000898FCE0149960E944105A096E2E10C9483
:10063000740DA8E1B0E0EFE1F3E00C94600D698384
:100640007A838B839C832D833E834F835887B9E0C5
:10065000EB2EF12CEC0EFD1ECE010196B7010E948F
:1006600016068E010F5E1F4FCE010596B8010E943F
:1006700016062985223008F47EC03989323010F4FC
:10068000B8017CC08A859A8989278A87243011F02D
:10069000223031F4231709F06EC06DEE70E06EC0A9
:1006A000343039F41D861E861F86188A1C861B86E8
:1006B00004C0323021F484E08987B7015FC02B8504
:1006C0003C858B899C89281B390B3C872B87ED84C3
:1006D000FE840F851889AD88BE88CF88D88CEA142F
:1006E000FB040C051D0540F4EE0CFF1C001F111F40
:1006F000215030403C872B8720E030E040E050E044
:1007000080E090E0A0E0B0E460E070E0EA14FB0478
:100710000C051D0540F0282B392B4A2B5B2BEA18C2
:10072000FB080C091D09B695A79597958795EE0CC2
:10073000FF1C001F111F6F5F7F4F6F31710531F775
:10074000DA01C9018F779070A070B0708034910584
:10075000A105B10561F427FD0AC0E114F10401050A
:10076000110529F0205C3F4F4F4F5F4F20782D87B8
:100770003E874F87588BBE01675F7F4FCB010E943A
:1007800041056896EAE00C947C0DA8E1B0E0EBEC42
:10079000F3E00C94640D69837A838B839C832D83AF
:1007A0003E834F83588789E0E82EF12CEC0EFD1E26
:1007B000CE010196B7010E9416068E010F5E1F4FF3
:1007C000CE010596B8010E9416068985823040F058
:1007D0008989823028F0C701B8010E948E0601C0C5
:1007E0008FEF6896E6E00C94800DA8E1B0E0EBEFA7
:1007F000F3E00C94640D69837A838B839C832D834F
:100800003E834F83588789E0E82EF12CEC0EFD1EC5
:10081000CE010196B7010E9416068E010F5E1F4F92
:10082000CE010596B8010E9416068985823040F0F7
:100830008989823028F0C701B8010E948E0601C064
:1008400081E06896E6E00C94800DACE0B0E0EBE26D
:10085000F4E00C94680D69837A838B839C83CE01CA
:100860000196BE016B5F7F4F0E9416068D8182301C
:1008700061F1823050F1843021F48E81882351F16E
:100880002EC02F81388537FD20C06E812F31310574
:100890001CF06623F9F023C08EE190E0821B930BDD
:1008A00029853A854B855C8504C0569547953795D3
:1008B00027958A95D2F76623B1F0509540953095EB
:1008C00021953F4F4F4F5F4F0EC020E030E040E09A
:1008D00050E009C02FEF3FEF4FEF5FE704C020E08B
:1008E00030E040E050E8B901CA012C96E2E00C94F7
:1008F000840DA8E0B0E0EFE7F4E00C94600D7B011C
:100900008C01611571058105910519F482E08983D7
:1009100060C083E089838EE1C82ED12CDC82CB823B
:10092000ED82FE820F831887C801B7010E94F2048E
:10093000FC013197F7FF3BC0222733272E1B3F0BCB
:1009400057016801022E04C0D694C794B794A794A7
:100950000A94D2F740E050E060E070E081E090E07F
:10096000A0E0B0E004C0880F991FAA1FBB1F2A9502
:10097000D2F70197A109B1098E219F21A023B123AC
:100980000097A105B10521F041E050E060E070E082
:100990004A295B296C297D294D835E836F83788783
:1009A0008EE190E08E1B9F0B9C838B8312C030974F
:1009B00081F00E2E04C0EE0CFF1C001F111F0A94C4
:1009C000D2F7ED82FE820F831887CE1ADF0ADC820F
:1009D000CB821A82CE0101960E9441052896EAE058
:1009E0000C947C0DEF92FF920F931F937B018C016F
:1009F00080E0E81680E0F80681E0080780E018074C
:100A000088F48FEFE816F1040105110531F028F0A4
:100A100088E090E0A0E0B0E017C080E090E0A0E0C7
:100A2000B0E012C080E0E81680E0F80680E0080739
:100A300081E0180728F088E190E0A0E0B0E004C071
:100A400080E190E0A0E0B0E020E230E040E050E063
:100A5000281B390B4A0B5B0B04C016950795F794BE
:100A6000E7948A95D2F7F701EB50FF4F8081281B5E
:100A7000310941095109C9011F910F91FF90EF9070
:100A80000895DF92EF92FF920F931F93FC01E48091
:100A9000F58006811781D1808081823048F480E022
:100AA00090E0A0E1B0E0E82AF92A0A2B1B2BA5C0B0
:100AB000843009F49FC0823021F4EE24FF248701A2
:100AC00005C0E114F1040105110519F4E0E0F0E0BE
:100AD00096C0628173819FEF623879070CF05BC02A
:100AE00022E83FEF261B370B2A3131052CF020E09E
:100AF00030E040E050E02AC0B801A701022E04C057
:100B000076956795579547950A94D2F781E090E0DE
:100B1000A0E0B0E004C0880F991FAA1FBB1F2A9550
:100B2000D2F70197A109B1098E219F21A023B123FA
:100B30000097A105B10521F081E090E0A0E0B0E0D0
:100B40009A01AB01282B392B4A2B5B2BDA01C90107
:100B50008F779070A070B07080349105A105B105B9
:100B600039F427FF09C0205C3F4F4F4F5F4F04C04F
:100B7000215C3F4F4F4F5F4FE0E0F0E02030A0E0BE
:100B80003A07A0E04A07A0E45A0710F0E1E0F0E0DD
:100B900079018A0127C06038710564F5FB01E158CD
:100BA000FF4FD801C7018F779070A070B07080346C
:100BB0009105A105B10539F4E7FE0DC080E490E090
:100BC000A0E0B0E004C08FE390E0A0E0B0E0E80E69
:100BD000F91E0A1F1B1F17FF05C016950795F794EE
:100BE000E794319687E016950795F794E7948A95F0
:100BF000D1F705C0EE24FF248701EFEFF0E06E2F60
:100C0000679566276795902F9F77D794DD24D794B3
:100C10008E2F8695492F462B582F5D29B701CA0183
:100C20001F910F91FF90EF90DF900895FC01DB0181
:100C3000408151812281622F6F7770E0221F22272D
:100C4000221F9381892F880F822B282F30E0991F34
:100C50009927991F11969C93119721153105A9F594
:100C6000411551056105710511F482E037C082E834
:100C70009FEF13969C938E9312979A01AB0167E0B6
:100C8000220F331F441F551F6A95D1F783E08C93C1
:100C90000DC0220F331F441F551F12968D919C913A
:100CA0001397019713969C938E931297203080E0B0
:100CB000380780E0480780E4580758F314962D93CE
:100CC0003D934D935C93179708952F3F310579F429
:100CD000411551056105710519F484E08C9308955F
:100CE00064FF03C081E08C9312C01C9210C02F5788
:100CF000304013963C932E93129783E08C9387E0B9
:100D0000440F551F661F771F8A95D1F7706414969C
:100D10004D935D936D937C93179708951F93DC011A
:100D2000FB019C91923008F447C08081823008F426
:100D300043C0943051F411961C91843099F581810F
:100D4000682F70E0611B71093FC0843021F0923040
:100D500031F48230B9F18181882389F12DC0119657
:100D60001C9111978230F1F081811817D9F41296F5
:100D70002D913C911397828193818217930794F070
:100D800028173907BCF014968D919D910D90BC9158
:100D9000A02D2481358146815781281739074A07BC
:100DA0005B0718F4112341F00AC082179307A407C8
:100DB000B50740F4112319F061E070E005C06FEF52
:100DC0007FEF02C060E070E0CB011F910895BB9AF5
:100DD00093B7982B93BF83B7862B83BF089590E07A
:100DE000A0E0B0E0BC01CD010E94790420E030E039
:100DF00048EC52E40E94190320E030E04FE753E44E
:100E00000E941F020E9449006CBF0895CF92DF929A
:100E1000EF92FF920F931F93DF93CF93CDB7DEB77F
:100E2000C357D0400FB6F894DEBF0FBECDBF7B01D5
:100E30008C01CC24DD240DC0C801B70120E030E0D6
:100E400040E251E40E941F027B018C010894C11C06
:100E5000D11CC801B70120E030E040E85FE30E9408
:100E6000F50387FDE9CFC801B70120E030E040E29B
:100E700051E40E941F020E942504AE014A5F5F4FA9
:100E80002AE030E00E949A0D188A198A1A8A1B8A71
:100E9000FE01749680E6DF011D928A95E9F78DE6E2
:100EA00093E7A0E0B0E089839A83AB83BC831D8283
:100EB0008E01005F1F4FC80160E670E00E948F0D39
:100EC000EE24FF240894C108D10808C0C80163E6D5
:100ED00070E00E948F0D0894E11CF11CEC14FD04DD
:100EE000ACF3C801BE016A5F7F4F0E948F0DC8013D
:100EF000BE016F5F7F4F0E948F0D84E0B80140E01C
:100F00000E94630ACD58DF4F0FB6F894DEBF0FBEC4
:100F1000CDBFCF91DF911F910F91FF90EF90DF90A8
:100F2000CF9008956F927F928F929F92AF92BF92CF
:100F3000CF92DF92EF92FF920F931F93DF93CF93A5
:100F4000CDB7DEB7CE57D0400FB6F894DEBF0FBE98
:100F5000CDBFFE01369687E0DF011D928A95E9F745
:100F6000FE013D968EE0DF011D928A95E9F71FBCD8
:100F70001DBC1CBC80E288BF81EC8EBD08B605FE9E
:100F8000FDCF26B537B580E288BF81EC8EBD08B6AF
:100F900005FEFDCFE6B4F7B480E288BF81E88EBDE0
:100FA00008B605FEFDCF06B517B580E288BF1EBCAA
:100FB0002E153F0508F0ACC0E016F10608F0A8C0F9
:100FC0005701A21AB30ACC24DD2460E074E284EF56
:100FD00090E0A60195010E94220DCA01B90128EEF8
:100FE00033E040E050E00E94220D39014A010E1921
:100FF0001F09B80180E090E00E9479047B018C0118
:10100000C601B5010E9479049B01AC01C801B7017A
:101010000E94190320E030E048EC52E40E941F02D5
:101020000E9425047093D7036093D603C401B301D3
:10103000AE01435F5F4F2AE030E00E949A0DDE016F
:101040005B96E1E8F0E086E001900D928150E1F7D7
:10105000FE01B1968EE5DF011D928A95E9F78BE4DA
:1010600098E6AAE7B0E089839A83AB83BC831D82AC
:101070008E01055E1F4FC801BE01635F7F4F0E9456
:101080008F0DC801BE016F5F7F4F0E948F0D81E001
:10109000B80140E00E94630A00D000D000D0EDB754
:1010A000FEB731968E010A5F1F4FADB7BEB71296DD
:1010B0001C930E93119785E690E093838283809131
:1010C000D6039091D703958384830E94CE0D8DB76C
:1010D0009EB706960FB6F8949EBF0FBE8DBFC8018F
:1010E00060E770E00E948F0D81E0B80141E00E944E
:1010F000630AC401B3010E9479049B01AC0160E062
:1011000070E080E89FE30E9419030E94060708C070
:101110000E94430A81E062E770E040E00E94630AB7
:1011200084EF91E020E931E0F9013197F1F701977F
:10113000D9F7C258DF4F0FB6F894DEBF0FBECDBF50
:10114000CF91DF911F910F91FF90EF90DF90CF90A3
:10115000BF90AF909F908F907F906F90089581E0A7
:101160008ABB8BBB80E00895683008F074C04423CC
:10117000D1F58130A1F0813030F08230E1F0833060
:1011800009F069C024C02AB381E090E002C0880F52
:10119000991F6A95E2F7809582238ABB5AC027B3CC
:1011A00081E090E002C0880F991F6A95E2F7809570
:1011B000822387BB4EC024B381E090E002C0880F39
:1011C000991F6A95E2F78095822384BB42C021B3C0
:1011D00081E090E002C0880F991F6A95E2F7809540
:1011E000822381BB36C04130A1F5813091F081303E
:1011F00028F08230C9F0833071F521C02AB381E034
:1012000090E002C0880F991F6A95E2F7282B2ABB4D
:1012100020C027B381E090E002C0880F991F6A9533
:10122000E2F7282B27BB15C024B381E090E002C071
:10123000880F991F6A95E2F7282B24BB0AC021B3B7
:1012400081E090E002C0880F991F6A95E2F7282B91
:1012500021BB80E0089583E00895683008F074C0F1
:101260004423D1F58130A1F0813030F08230E1F0BB
:10127000833009F069C024C02BB381E090E002C044
:10128000880F991F6A95E2F7809582238BBB5AC01D
:1012900028B381E090E002C0880F991F6A95E2F7B9
:1012A0008095822388BB4EC025B381E090E002C0C8
:1012B000880F991F6A95E2F78095822385BB42C00B
:1012C00022B381E090E002C0880F991F6A95E2F78F
:1012D0008095822382BB36C04130A1F5813091F0E8
:1012E000813028F08230C9F0833071F521C02BB3F2
:1012F00081E090E002C0880F991F6A95E2F7282BE1
:101300002BBB20C028B381E090E002C0880F991F5A
:101310006A95E2F7282B28BB15C025B381E090E041
:1013200002C0880F991F6A95E2F7282B25BB0AC0D7
:1013300022B381E090E002C0880F991F6A95E2F71E
:10134000282B22BB80E0089583E008956830B0F533
:10135000813091F0813028F08230C9F0833071F50E
:1013600021C02BB381E090E002C0880F991F6A95DD
:10137000E2F728272BBB20C028B381E090E002C011
:10138000880F991F6A95E2F7282728BB15C025B357
:1013900081E090E002C0880F991F6A95E2F7282744
:1013A00025BB0AC022B381E090E002C0880F991FDC
:1013B0006A95E2F7282722BB80E0089583E008952C
:1013C000FA014115510511F482E008958430E0F4EA
:1013D0006830D0F4813049F0813028F0823039F023
:1013E000833081F406C089B305C086B303C083B3DC
:1013F00001C080B390E002C0959587956A95E2F7A9
:101400008170808381E0089583E0089580E00895ED
:1014100080E0089580E008958BBBC298C198C09A7F
:101420008AE1982F9A95F1F7C0988A95F1F7089577
:101430008FEF8ABB87BB88B3806788BB88EC90E05E
:1014400020E931E0F9013197F1F70197D9F78EE3FF
:101450000E940C0A80E40E940C0A88EB0E940C0A8D
:1014600080EC0E940C0A8FE30E940C0A08958BBB4B
:10147000C29AC198C09A8AE1982F9A95F1F7C098BC
:101480008A95F1F708951F93CF93DF9388B3806314
:1014900088BB18EB812F0E940C0AC0E0D0E080E0EE
:1014A0000E94370A2196C034D105C9F71F5F103C4E
:1014B00089F780E40E940C0A88EB0E940C0ADF91F5
:1014C000CF911F9108952F923F924F925F926F920A
:1014D0007F928F929F92AF92BF92CF92DF92EF92C4
:1014E000FF920F931F93DF93CF9300D000D000D0D3
:1014F000CDB7DEB7F62EE72E082F10E078EBC72E1B
:10150000D12CC00ED11E442319F4C49AC59802C030
:10151000C59AC4988C2D0E940C0A1695102F00278E
:101520001795079522273327201B310B25503C4F59
:101530003C832B838F2D9E2D9C013A8329831E8211
:101540001D820F2EF0E0EF2EF0E0FF2EF0E00F2FC7
:10155000FFE31F2FF02D16014424552444C14D8173
:101560005E81EB81FC81E417F50708F442C180320B
:1015700009F464C0CA01742E692E5701680151E054
:10158000852E912C2D813E81280D391D3E832D8382
:10159000C801B70120E030E040E05FE30E94F201C3
:1015A0007B018C010E9425047695762F662777951E
:1015B00067954D815E816417750739F0872D962DEB
:1015C0009E838D83860175011DC055E085169104AB
:1015D00039F180E40E940C0A88B390E1892788BB26
:1015E00088B3E0E28E2788BBC201B1010E94790472
:1015F000A60195010E94F2010E944900DC01CB0185
:101600000E940C0A0894811C911CF6E08F1691042C
:1016100069F08D819E81782E692E57016801B2CFC5
:10162000872D962D9E838D83860175012D813E81A8
:101630004B815C814217530708F4DBC0E981FA81D2
:101640002081F9E12F9FC00111248751914019F0A9
:10165000203209F04EC0AD80BE80CC24DD24E9816B
:10166000FA81808190E08097FC01EE0FFF1FEE0F62
:10167000FF1FE80FF91FEC0DFD1DEB50FE4F8081A1
:101680000E94370A0894A11CB11CC5018F73907089
:10169000892B01F588B3F0E18F2788BB88B320E25E
:1016A000822788BBC201B1010E947904A801970179
:1016B0000E94F2010E944900DC01CB010E940C0A49
:1016C000C801B70120E030E040E05FE30E94F20192
:1016D0007B018C010894C11CD11C35E0C316D104D8
:1016E00009F0BDCF4D815E814B5F5F4F5E834D83BF
:1016F00075C0AD80BE80CC24DD24E981FA81808173
:1017000090E08097FC01EE0FFF1FEE0FFF1FE80F28
:10171000F91FEC0DFD1DEB50FE4F80810E94370A32
:101720000894A11CB11CC5018F739070892B01F521
:1017300088B3F0E18F2788BB88B320E2822788BB7B
:10174000C201B1010E947904A80197010E94F2012F
:101750000E944900DC01CB010E940C0AC801B701BC
:1017600020E030E040E05FE30E94F2017B018C0169
:101770000894C11CD11C35E0C316D10409F0BDCFBB
:1017800080E00E94370A4D815E814A5F5F4F5E8331
:101790004D83CA018F739070892B01F588B350E196
:1017A000852788BB88B390E2892788BBC201B10135
:1017B0000E947904A80197010E94F2010E94490049
:1017C000DC01CB010E940C0AC801B70120E030E027
:1017D00040E05FE30E94F2017B018C01E981FA8124
:1017E0003196FA83E983E981FA818081882309F0BF
:1017F000B6CE80E40E940C0A26960FB6F894DEBF9F
:101800000FBECDBFCF91DF911F910F91FF90EF9051
:10181000DF90CF90BF90AF909F908F907F906F9010
:101820005F904F903F902F9008950E9492070895E7
:101830002F923F924F925F926F927F928F929F92E0
:10184000AF92BF92CF92DF92EF92FF920F931F93CE
:10185000DF93CF93CDB7DEB7E7970FB6F894DEBF2F
:101860000FBECDBFFE0131968FE0DF011D928A953C
:10187000E9F7CF0165EE70E00E948F0D80E1682EE0
:10188000712C6C0E7D1EC30167EE70E00E948F0DFF
:101890008824992422243324CC24DD2455C0C30178
:1018A00067EE70E00E948F0D0894E11CF11C011D91
:1018B000111D24014E0C5F1C8091D6039091D7031B
:1018C0006AE070E00E940F0D882777FD8095982FC1
:1018D000E616F7060807190710F3C30169EE70E072
:1018E0000E948F0DEE24FF2487010AC0C30169EE18
:1018F00070E00E948F0D0894E11CF11C011D111D68
:101900005101AE0CBF1C8091D6039091D70366EFB6
:101910007FEF0E940F0D665F7F4F882777FD8095D0
:10192000982FE616F7060807190700F3C30167EEBC
:1019300070E00E948F0D0894C11CD11CB2E0CB1640
:10194000D10431F042011501EE24FF248701B1CF0B
:10195000C501840D951D65E070E00E940F0D8B019F
:101960007E010894E11CF11C07C0C70167EE70E01E
:101970000E948F0D0150104010161106B4F3C701DC
:101980006BEE70E00E948F0D86E0B70140E00E9490
:10199000630A87E0BE01605F7F4F40E00E94630AF8
:1019A000E7960FB6F894DEBF0FBECDBFCF91DF91A3
:1019B0001F910F91FF90EF90DF90CF90BF90AF906D
:1019C0009F908F907F906F905F904F903F902F905F
:1019D00008950E94180A0E94430A0895FF920F93E7
:1019E0001F93182F062FF42E0E94180A0E94430AF4
:1019F000812F602F0E94E7068F2D0E94EF061F9116
:101A00000F91FF90089588E661E040E50E94EE0C9A
:101A10000E94E90C0E94150C0E94180CFBCF97FB4A
:101A2000092E07260AD077FD04D02ED006D000203C
:101A30001AF4709561957F4F0895F6F7909581950A
:101A40009F4F0895A1E21A2EAA1BBB1BFD010DC0DA
:101A5000AA1FBB1FEE1FFF1FA217B307E407F5075E
:101A600020F0A21BB30BE40BF50B661F771F881F3A
:101A7000991F1A9469F760957095809590959B01D0
:101A8000AC01BD01CF010895AA1BBB1B51E107C0EA
:101A9000AA1FBB1FA617B70710F0A61BB70B881FFE
:101AA000991F5A95A9F780959095BC01CD0108958D
:101AB0002F923F924F925F926F927F928F929F925E
:101AC000AF92BF92CF92DF92EF92FF920F931F934C
:101AD000CF93DF93CDB7DEB7CA1BDB0B0FB6F894FD
:101AE000DEBF0FBECDBF09942A88398848885F843D
:101AF0006E847D848C849B84AA84B984C884DF80AE
:101B0000EE80FD800C811B81AA81B981CE0FD11D91
:101B10000FB6F894DEBF0FBECDBFED010895FB01F7
:101B2000DC010D900020E9F7119701900D92002043
:101B3000E1F70895FA01CF93FF93EF93223044F138
:101B4000253234F5C22FE894CA3049F497FB3EF4AD
:101B500090958095709561957F4F8F4F9F4F2C2F5B
:101B6000332744275527FF93EF930E94220DEF91CF
:101B7000FF91605D6A330CF0695D6193B901CA0140
:101B8000605070408040904051F716F4CDE2C19310
:101B900010828F919F91CF910C94E50FAEE0B0E051
:101BA000E4EDFDE00C94660D0D891E8986E08C83C2
:101BB0001A8309838FEF9FE79E838D839E01275EA3
:101BC0003F4FCE0101966F89788DA9010E94F20DD9
:101BD0002F813885020F131FF80110822E96E4E042
:101BE0000C94820DABE0B0E0E8EFFDE00C94580DF2
:101BF0003C012B015A01FC0117821682838181FD71
:101C000003C06FEF7FEFC6C19AE0892E1E010894D2
:101C1000211C311CF3012381F20123FD859123FF57
:101C200081912F01882309F4B2C1853239F423FD53
:101C3000859123FF81912F01853229F490E0B30132
:101C40000E94F50FE7CF982FFF24EE249924FFE19F
:101C5000FF15D0F09B3269F09C3228F4903259F095
:101C6000933291F40EC09D3249F0903369F441E013
:101C700024C052E0F52A84E0F82A28C098E0F92A26
:101C800025C0E0E1FE2A22C0F7FC29C0892F80533D
:101C90008A3070F4F6FE05C0989C902C1124980EA2
:101CA00015C0E89CE02C1124E80EF0E2FF2A0EC0DB
:101CB0009E3229F4F6FC6BC140E4F42A07C09C363E
:101CC00019F450E8F52A02C0983649F4F20123FDD0
:101CD000959123FF91912F01992309F0B8CF892F76
:101CE0008554833018F08052833038F444E050E05B
:101CF000A40EB51E5FE359830FC0933631F09337BE
:101D000079F0933509F056C020C0F50180818983B0
:101D100042E050E0A40EB51E610101E010E012C0E7
:101D2000F501C080D180F6FC03C06FEF7FEF02C0E9
:101D3000692D70E042E050E0A40EB51EC6010E947D
:101D4000DA0F8C015FE7F52214C0F501C080D18065
:101D5000F6FC03C06FEF7FEF02C0692D70E042E038
:101D600050E0A40EB51EC6010E94CF0F8C0150E8B2
:101D7000F52AF3FE07C01AC080E290E0B3010E948A
:101D8000F50FEA948E2D90E008171907A8F30EC0FE
:101D9000F601F7FC8591F7FE81916F0190E0B301A8
:101DA0000E94F50FE110EA94015010400115110551
:101DB00079F7EAC0943611F0993669F5F7FE08C054
:101DC000F501208131814281538184E090E00AC095
:101DD000F501808191819C01442737FD4095542F66
:101DE00082E090E0A80EB91E9FE6F92257FF09C0D5
:101DF00050954095309521953F4F4F4F5F4FE0E80C
:101E0000FE2ACA01B901A1012AE030E00E94211096
:101E1000D82ED21840C0953729F41F2D1F7E2AE0F6
:101E200030E01DC01F2D197F9F3661F0903720F4E0
:101E3000983509F0ACC00FC0903739F0983709F0E9
:101E4000A6C004C028E030E00AC0106114FD146090
:101E500020E130E004C014FD166020E132E017FFFD
:101E600008C0F501608171818281938144E050E076
:101E700008C0F50180819181BC0180E090E042E0E2
:101E800050E0A40EB51EA1010E942110D82ED21838
:101E90008FE7F82EF122F6FE0BC05EEFF522D91483
:101EA00038F4F4FE07C0F2FC05C08FEEF82202C041
:101EB0001D2D01C0192DF4FE0DC0FE01ED0DF11D0B
:101EC0008081803319F499EEF92208C01F5FF2FE79
:101ED00005C003C08F2D867809F01F5F0F2DF3FC1E
:101EE00014C0F0FE0FC01E1510F09D2C0BC09D2CD1
:101EF0009E0C911A1E2D06C080E290E0B3010E9454
:101F0000F50F1F5F1E15C0F304C01E1510F4E11A73
:101F100001C0EE2404FF0FC080E390E0B3010E94F3
:101F2000F50F02FF1DC001FD03C088E790E00EC061
:101F300088E590E00BC0802F867891F001FF02C009
:101F40008BE201C080E2F7FC8DE290E0B3010E94D9
:101F5000F50F06C080E390E0B3010E94F50F9A945C
:101F6000D914C0F3DA94F101ED0DF11D808190E0F8
:101F7000B3010E94F50FDD20A9F706C080E290E0D2
:101F8000B3010E94F50FEA94EE20C1F743CEF301AE
:101F900066817781CB012B96E2E10C94740DFC01F4
:101FA0000590615070400110D8F7809590958E0F84
:101FB0009F1F0895FC016150704001900110D8F7F7
:101FC000809590958E0F9F1F0895DC01FC01672F6F
:101FD00071917723E1F7329704C07C916D93708300
:101FE0006291AE17BF07C8F308950F931F93CF9365
:101FF000DF938C01EB018B8181FF1BC082FF0DC041
:102000002E813F818C819D812817390764F4E881F6
:10201000F9810193F983E88306C0E885F985802F6B
:102020000995892B31F48E819F8101969F838E8340
:1020300002C00FEF1FEFC801DF91CF911F910F91E9
:102040000895FA01AA27283051F1203181F1E8944E
:102050006F936E7F6E5F7F4F8F4F9F4FAF4FB1E09B
:102060003ED0B4E03CD0670F781F891F9A1FA11D96
:10207000680F791F8A1F911DA11D6A0F711D811D97
:10208000911DA11D20D009F468943F912AE0269F5C
:1020900011243019305D3193DEF6CF010895462FBB
:1020A0004770405D4193B3E00FD0C9F7F6CF462F9C
:1020B0004F70405D4A3318F0495D31FD4052419305
:1020C00002D0A9F7EACFB4E0A695979587957795C2
:1020D0006795BA95C9F700976105710508959B0149
:1020E000AC010A2E06945795479537952795BA95D2
:1020F000C9F7620F731F841F951FA01D0895F894E0
:02210000FFCF0F
:10210200302E003000202020447574793A25640076
:1021120025004F5554204F462052414E474521211C
:1021220000467265713A00000000000000000000E5
:10213200000000000000000000000000000000009D
:10214200000000000000000000000000000000008D
:10215200000000000000000000000000000000007D
:10216200000000000000000000000000000000006D
:10217200000000000000000000000000000000005D
:1021820000000000003C002D005F003E0000000047
:102192000000000000000102020303030304040420
:1021A20004040404040505050505050505050505E2
:1021B20005050505050606060606060606060606C2
:1021C20006060606060606060606060606060606AD
:1021D2000606060606070707070707070707070792
:1021E200070707070707070707070707070707077D
:1021F200070707070707070707070707070707076D
:10220200070707070707070707070707070707075C
:102212000707070707080808080808080808080841
:10222200080808080808080808080808080808082C
:10223200080808080808080808080808080808081C
:10224200080808080808080808080808080808080C
:1022520008080808080808080808080808080808FC
:1022620008080808080808080808080808080808EC
:1022720008080808080808080808080808080808DC
:1022820008080808080808080808080808080808CC
:102292000808080808000000000000005F000000B5
:1022A20007000700147F147F14242A7F2A122313A5
:1022B20008646236495522500005030000001C22C2
:1022C20041000041221C0014083E081408083E0880
:1022D200080050300000080808080800606000008C
:1022E20020100804023E5149453E00427F40004210
:1022F200615149462141454B311814127F1027453F
:102302004545393C4A494930017109050336494975
:102312004936064949291E00363600000056360065
:102322000008142241001414141414004122140849
:102332000201510906324979413E7E1111117E7F17
:10234200494949363E414141227F4141221C7F4950
:102352004949417F090909013E4149497A7F0808F3
:10236200087F00417F41002040413F017F08142245
:10237200417F404040407F020C027F7F0408107F73
:102382003E4141413E7F090909063E4151215E7F9E
:1023920009192946464949493101017F01013F4056
:1023A20040403F1F2040201F3F4038403F631408F9
:1023B200146307087008076151494543007F414192
:1023C2000002040810200041417F000402010204BF
:1023D2004040404040000102040020545454787FA1
:1023E200484444383844444420384444487F3854AC
:1023F200545418087E0901020C5252523E7F0804BE
:10240200047800447D40002040443D007F10284471
:102412000000417F40007C041804787C08040478A2
:1024220038444444387C14141408081414187C7C6E
:10243200080404084854545420043F4440203C40BB
:1024420040207C1C2040201C3C4030403C44281052
:1024520028440C5050503C4464544C4400083641CB
:102462000000007F00000041360800100808100834
:06247200784641467800A7
:00000001FF
